{
    "_format": "hh-sol-artifact-1",
    "contractName": "Lock",
    "sourceName": "contracts/Lock.sol",
    "abi": [
        {
            "inputs": [
                {
                    "internalType": "uint256",
                    "name": "_unlockTime",
                    "type": "uint256"
                }
            ],
            "stateMutability": "payable",
            "type": "constructor"
        },
        {
            "anonymous": false,
            "inputs": [
                {
                    "indexed": true,
                    "internalType": "address",
                    "name": "from",
                    "type": "address"
                },
                {
                    "indexed": false,
                    "internalType": "uint256",
                    "name": "amount",
                    "type": "uint256"
                },
                {
                    "indexed": false,
                    "internalType": "uint256",
                    "name": "when",
                    "type": "uint256"
                }
            ],
            "name": "Deposit",
            "type": "event"
        },
        {
            "anonymous": false,
            "inputs": [
                {
                    "indexed": false,
                    "internalType": "uint256",
                    "name": "amount",
                    "type": "uint256"
                },
                {
                    "indexed": false,
                    "internalType": "uint256",
                    "name": "when",
                    "type": "uint256"
                }
            ],
            "name": "Withdrawal",
            "type": "event"
        },
        {
            "inputs": [],
            "name": "deposit",
            "outputs": [],
            "stateMutability": "payable",
            "type": "function"
        },
        {
            "inputs": [],
            "name": "owner",
            "outputs": [
                {
                    "internalType": "address payable",
                    "name": "",
                    "type": "address"
                }
            ],
            "stateMutability": "view",
            "type": "function"
        },
        {
            "inputs": [],
            "name": "unlockTime",
            "outputs": [
                {
                    "internalType": "uint256",
                    "name": "",
                    "type": "uint256"
                }
            ],
            "stateMutability": "view",
            "type": "function"
        },
        {
            "inputs": [],
            "name": "withdraw",
            "outputs": [],
            "stateMutability": "nonpayable",
            "type": "function"
        }
    ],
    "bytecode": "0x6080604052604051610bcd380380610bcd833981810160405281019061002591906101a9565b61003f67b9d52321abefb90960c01b61016b60201b60201c565b610059677a409795f27f91c660c01b61016b60201b60201c565b610073674c074cfd2eaf5d8f60c01b61016b60201b60201c565b61008d671e25f969e6baa9a560c01b61016b60201b60201c565b8042106100cf576040517f08c379a00000000000000000000000000000000000000000000000000000000081526004016100c690610259565b60405180910390fd5b6100e967e5e1092d024675ae60c01b61016b60201b60201c565b61010367cd6f3856de3a3c6160c01b61016b60201b60201c565b8060008190555061012467ba2ccc0fb9e3d33360c01b61016b60201b60201c565b33600160006101000a81548173ffffffffffffffffffffffffffffffffffffffff021916908373ffffffffffffffffffffffffffffffffffffffff16021790555050610279565b50565b600080fd5b6000819050919050565b61018681610173565b811461019157600080fd5b50565b6000815190506101a38161017d565b92915050565b6000602082840312156101bf576101be61016e565b5b60006101cd84828501610194565b91505092915050565b600082825260208201905092915050565b7f556e6c6f636b2074696d652073686f756c6420626520696e207468652066757460008201527f7572650000000000000000000000000000000000000000000000000000000000602082015250565b60006102436023836101d6565b915061024e826101e7565b604082019050919050565b6000602082019050818103600083015261027281610236565b9050919050565b610945806102886000396000f3fe60806040526004361061003f5760003560e01c8063251c1aa3146100445780633ccfd60b1461006f5780638da5cb5b14610086578063d0e30db0146100b1575b600080fd5b34801561005057600080fd5b506100596100bb565b60405161006691906105dd565b60405180910390f35b34801561007b57600080fd5b506100846100c1565b005b34801561009257600080fd5b5061009b61038b565b6040516100a89190610639565b60405180910390f35b6100b96103b1565b005b60005481565b6100d5671254c508b0a32f2660c01b6104d2565b6100e967d0fb1e84c781c07660c01b6104d2565b6100fd67638a319d804e9cbc60c01b6104d2565b6101226040518060600160405280602b81526020016108e5602b9139600054426104d5565b61013667f650442683e6231460c01b6104d2565b61014a67585e7e2c56a7b97160c01b6104d2565b61015e6778c13f273b1c52c460c01b6104d2565b6000544210156101a3576040517f08c379a000000000000000000000000000000000000000000000000000000000815260040161019a906106b1565b60405180910390fd5b6101b7674cf1d1828b69288c60c01b6104d2565b6101cb67a51c0d96bb37497560c01b6104d2565b6101df67736dcb04e1c5ce8160c01b6104d2565b6101f36704f075567c0af41860c01b6104d2565b600160009054906101000a900473ffffffffffffffffffffffffffffffffffffffff1673ffffffffffffffffffffffffffffffffffffffff163373ffffffffffffffffffffffffffffffffffffffff1614610283576040517f08c379a000000000000000000000000000000000000000000000000000000000815260040161027a9061071d565b60405180910390fd5b610297678de8026c5bef882060c01b6104d2565b6102ab6734ba94af5ce4918660c01b6104d2565b6102bf6735befb2fced965fc60c01b6104d2565b7fbf2ed60bd5b5965d685680c01195c9514e4382e28e3a5a2d2d5244bf59411b9347426040516102f092919061073d565b60405180910390a161030c673472c516bea9495c60c01b6104d2565b61032067341bcef8721c58bf60c01b6104d2565b600160009054906101000a900473ffffffffffffffffffffffffffffffffffffffff1673ffffffffffffffffffffffffffffffffffffffff166108fc479081150290604051600060405180830381858888f19350505050158015610388573d6000803e3d6000fd5b50565b600160009054906101000a900473ffffffffffffffffffffffffffffffffffffffff1681565b6103c5670fbfbb54db98aee660c01b6104d2565b6103d967a19686f0cc33d51260c01b6104d2565b6103ed67a6bf5c0af05f971360c01b6104d2565b61040167afbe61f21854f43b60c01b6104d2565b60003411610444576040517f08c379a000000000000000000000000000000000000000000000000000000000815260040161043b906107d8565b60405180910390fd5b610458670b3bb4cc77f8b30060c01b6104d2565b61046c67dd5b3bbf9efeac6060c01b6104d2565b6104806780a7f6461344144f60c01b6104d2565b3373ffffffffffffffffffffffffffffffffffffffff167f90890809c654f11d6e72a28fa60149770a0d11ec6c92319d6ceb2bb0a4ea1a1534426040516104c892919061073d565b60405180910390a2565b50565b61056f8383836040516024016104ed93929190610877565b6040516020818303038152906040527fca47c4eb000000000000000000000000000000000000000000000000000000007bffffffffffffffffffffffffffffffffffffffffffffffffffffffff19166020820180517bffffffffffffffffffffffffffffffffffffffffffffffffffffffff8381831617835250505050610574565b505050565b61058b8161058361058e6105af565b63ffffffff16565b50565b60006a636f6e736f6c652e6c6f679050600080835160208501845afa505050565b6105ba819050919050565b6105c26108b5565b565b6000819050919050565b6105d7816105c4565b82525050565b60006020820190506105f260008301846105ce565b92915050565b600073ffffffffffffffffffffffffffffffffffffffff82169050919050565b6000610623826105f8565b9050919050565b61063381610618565b82525050565b600060208201905061064e600083018461062a565b92915050565b600082825260208201905092915050565b7f596f752063616e27742077697468647261772079657400000000000000000000600082015250565b600061069b601683610654565b91506106a682610665565b602082019050919050565b600060208201905081810360008301526106ca8161068e565b9050919050565b7f596f75206172656e277420746865206f776e6572000000000000000000000000600082015250565b6000610707601483610654565b9150610712826106d1565b602082019050919050565b60006020820190508181036000830152610736816106fa565b9050919050565b600060408201905061075260008301856105ce565b61075f60208301846105ce565b9392505050565b7f4465706f73697420616d6f756e74206d7573742062652067726561746572207460008201527f68616e207a65726f000000000000000000000000000000000000000000000000602082015250565b60006107c2602883610654565b91506107cd82610766565b604082019050919050565b600060208201905081810360008301526107f1816107b5565b9050919050565b600081519050919050565b60005b83811015610821578082015181840152602081019050610806565b60008484015250505050565b6000601f19601f8301169050919050565b6000610849826107f8565b6108538185610654565b9350610863818560208601610803565b61086c8161082d565b840191505092915050565b60006060820190508181036000830152610891818661083e565b90506108a060208301856105ce565b6108ad60408301846105ce565b949350505050565b7f4e487b7100000000000000000000000000000000000000000000000000000000600052605160045260246000fdfe556e6c6f636b2074696d6520697320256f20616e6420626c6f636b2074696d657374616d7020697320256fa2646970667358221220ff0db0b990cf007a66cec66f461429c31334924c45c990a15e2dc3eca1ac587c64736f6c634300081c0033",
    "linkReferences": {},
    "deployedLinkReferences": {}
}